{
  "contractName": "Payments",
  "abi": [
    {
      "inputs": [
        {
          "internalType": "address",
          "name": "_canteen",
          "type": "address"
        },
        {
          "internalType": "address",
          "name": "_shop01",
          "type": "address"
        },
        {
          "internalType": "address",
          "name": "_tokenAddress",
          "type": "address"
        }
      ],
      "payable": false,
      "stateMutability": "nonpayable",
      "type": "constructor"
    },
    {
      "anonymous": false,
      "inputs": [
        {
          "indexed": true,
          "internalType": "address",
          "name": "_payer",
          "type": "address"
        },
        {
          "indexed": true,
          "internalType": "address",
          "name": "_receipient",
          "type": "address"
        },
        {
          "indexed": true,
          "internalType": "uint256",
          "name": "_amount",
          "type": "uint256"
        },
        {
          "indexed": false,
          "internalType": "string",
          "name": "_type",
          "type": "string"
        }
      ],
      "name": "Paid",
      "type": "event"
    },
    {
      "constant": true,
      "inputs": [],
      "name": "tokens",
      "outputs": [
        {
          "internalType": "contract Tokens",
          "name": "",
          "type": "address"
        }
      ],
      "payable": false,
      "stateMutability": "view",
      "type": "function"
    },
    {
      "constant": true,
      "inputs": [
        {
          "internalType": "address",
          "name": "",
          "type": "address"
        }
      ],
      "name": "userIsRegsitered",
      "outputs": [
        {
          "internalType": "bool",
          "name": "",
          "type": "bool"
        }
      ],
      "payable": false,
      "stateMutability": "view",
      "type": "function"
    },
    {
      "constant": false,
      "inputs": [
        {
          "internalType": "uint256",
          "name": "amount",
          "type": "uint256"
        }
      ],
      "name": "payTuitionFees",
      "outputs": [],
      "payable": false,
      "stateMutability": "nonpayable",
      "type": "function"
    }
  ],
  "bytecode": "0x608060405234801561001057600080fd5b506040516107073803806107078339818101604052606081101561003357600080fd5b81019080805190602001909291908051906020019092919080519060200190929190505050826000806101000a81548173ffffffffffffffffffffffffffffffffffffffff021916908373ffffffffffffffffffffffffffffffffffffffff16021790555081600160006101000a81548173ffffffffffffffffffffffffffffffffffffffff021916908373ffffffffffffffffffffffffffffffffffffffff16021790555033600260006101000a81548173ffffffffffffffffffffffffffffffffffffffff021916908373ffffffffffffffffffffffffffffffffffffffff16021790555080600360006101000a81548173ffffffffffffffffffffffffffffffffffffffff021916908373ffffffffffffffffffffffffffffffffffffffff16021790555050505061059a8061016d6000396000f3fe608060405234801561001057600080fd5b50600436106100415760003560e01c80632fa1ac2c1461004657806338f8720d146100745780639d63848a146100d0575b600080fd5b6100726004803603602081101561005c57600080fd5b810190808035906020019092919050505061011a565b005b6100b66004803603602081101561008a57600080fd5b81019080803573ffffffffffffffffffffffffffffffffffffffff16906020019092919050505061051f565b604051808215151515815260200191505060405180910390f35b6100d861053f565b604051808273ffffffffffffffffffffffffffffffffffffffff1673ffffffffffffffffffffffffffffffffffffffff16815260200191505060405180910390f35b600460003373ffffffffffffffffffffffffffffffffffffffff1673ffffffffffffffffffffffffffffffffffffffff16815260200190815260200160002060009054906101000a900460ff166101d9576040517f08c379a00000000000000000000000000000000000000000000000000000000081526004018080602001828103825260168152602001807f55736572206973206e6f7420726567697374657265640000000000000000000081525060200191505060405180910390fd5b80600360009054906101000a900473ffffffffffffffffffffffffffffffffffffffff1673ffffffffffffffffffffffffffffffffffffffff1663f8b2cb4f336040518263ffffffff1660e01b8152600401808273ffffffffffffffffffffffffffffffffffffffff1673ffffffffffffffffffffffffffffffffffffffff16815260200191505060206040518083038186803b15801561027957600080fd5b505afa15801561028d573d6000803e3d6000fd5b505050506040513d60208110156102a357600080fd5b81019080805190602001909291905050501015610328576040517f08c379a00000000000000000000000000000000000000000000000000000000081526004018080602001828103825260128152602001807f496e73756666696369656e742046756e6473000000000000000000000000000081525060200191505060405180910390fd5b600360009054906101000a900473ffffffffffffffffffffffffffffffffffffffff1673ffffffffffffffffffffffffffffffffffffffff166323b872dd33600260009054906101000a900473ffffffffffffffffffffffffffffffffffffffff16846040518463ffffffff1660e01b8152600401808473ffffffffffffffffffffffffffffffffffffffff1673ffffffffffffffffffffffffffffffffffffffff1681526020018373ffffffffffffffffffffffffffffffffffffffff1673ffffffffffffffffffffffffffffffffffffffff1681526020018281526020019350505050602060405180830381600087803b15801561042757600080fd5b505af115801561043b573d6000803e3d6000fd5b505050506040513d602081101561045157600080fd5b81019080805190602001909291905050505080600260009054906101000a900473ffffffffffffffffffffffffffffffffffffffff1673ffffffffffffffffffffffffffffffffffffffff163373ffffffffffffffffffffffffffffffffffffffff167ff438e2c4a3356a8b7d1d49f07f1c48399c11eb019c9fa7343bacc0371dade02260405180806020018281038252600c8152602001807f54756974696f6e2046656573000000000000000000000000000000000000000081525060200191505060405180910390a450565b60046020528060005260406000206000915054906101000a900460ff1681565b600360009054906101000a900473ffffffffffffffffffffffffffffffffffffffff168156fea265627a7a72315820f7e5357e6c7fd8773c36695bc0d66412881eaff970dc5060515d5cecb8202e8164736f6c63430005110032",
  "source": "pragma solidity ^0.5.0;\r\n\r\nimport './Tokens.sol';\r\n\r\ncontract Payments{\r\n    address canteen;\r\n    address shop01;\r\n    address owner;\r\n\r\n    Tokens public tokens;\r\n\r\n    mapping (address => bool) public userIsRegsitered;\r\n\r\n    event Paid(\r\n        address indexed _payer,\r\n        address indexed _receipient,\r\n        uint256 indexed _amount,\r\n        string  _type  // Type of payment -> is it food in the  \r\n                              // 1. canteen     2. Library      3. Library\r\n                              // 4. Inter-user transactions     5. Others\r\n                              \r\n    );\r\n\r\n    modifier OnlyRegisteredUsers() {\r\n        require(userIsRegsitered[msg.sender], 'User is not registered');\r\n        _;\r\n    }\r\n    modifier IsSufficient(uint256 val){\r\n        require(tokens.getBalance(msg.sender) >= val);\r\n        _;\r\n    }\r\n\r\n    constructor (address _canteen, address _shop01, address _tokenAddress) public{\r\n        canteen = _canteen;\r\n        shop01 = _shop01;\r\n        owner = msg.sender;\r\n        tokens = Tokens(_tokenAddress);\r\n    }\r\n\r\n    function payTuitionFees(uint256 amount) public OnlyRegisteredUsers {\r\n        require(tokens.getBalance(msg.sender) >= amount, 'Insufficient Funds');\r\n        tokens.transferFrom(msg.sender, owner, amount);\r\n        emit Paid(msg.sender, owner, amount, 'Tuition Fees');\r\n    }\r\n}",
  "sourcePath": "I:\\Dapp\\HUB\\defi-staking-app-starter\\defi-staking-app-starter\\src\\contracts\\Payments.sol",
  "compiler": {
    "name": "solc",
    "version": "0.5.17+commit.d19bba13.Emscripten.clang"
  },
  "schemaVersion": "3.4.16",
  "updatedAt": "2023-12-22T11:28:09.303Z",
  "devdoc": {
    "methods": {}
  },
  "userdoc": {
    "methods": {}
  }
}